:100000000C943E000C945B000C945B000C945B0021
:100010000C94E1040C94BA040C945B000C945B0007
:100020000C945B000C945B000C945B000C945B00E4
:100030000C945B000C945B000C945B000C945B00D4
:100040000C945B000C945B000C945B000C945B00C4
:100050000C945B00A702BD02D302E902FF02150364
:100060002B03410357036D03A103B703CD03E30340
:10007000F9030F0425043B045104670411241FBE37
:10008000CFE5D8E0DEBFCDBF10E0A0E6B0E0E6ED02
:10009000FCE002C005900D92A837B107D9F720E027
:1000A000A8E7B0E001C01D92AF37B207E1F70E94A8
:1000B00000020C9469060C94000087B1806487B933
:1000C00086B1806886B986B1816086B986B1826062
:1000D00086B986B1846086B9089586B1806486B990
:1000E0003699FECF84B195B1089598B39B7F98BBA4
:1000F000882324F498B3906898BB03C098B39F7783
:1001000098BB86FF04C098B3906498BB03C098B3B3
:100110009F7B98BB85FF04C098B3906298BB03C0D7
:1001200098B39F7D98BB84FF04C098B3906198BB3F
:1001300003C098B39F7E98BB98B3986098BBEFE9D3
:10014000FFE03197F1F700C0000098B3977F98BBAC
:10015000EFE9FFE03197F1F700C0000083FF04C032
:1001600098B3906898BB03C098B39F7798BB82FF01
:1001700004C098B3906498BB03C098B39F7B98BBAE
:1001800081FF04C098B3906298BB03C098B39F7D71
:1001900098BB80FF04C088B3806188BB03C088B36C
:1001A0008F7E88BB88B3886088BB8FE99FE001970A
:1001B000F1F700C0000088B3877F88BBEFE9FFE05C
:1001C0003197F1F700C00000089587B38C6F87BBAB
:1001D00083E00E9475008FE79EE30197F1F700C06E
:1001E000000083E00E9475008FE79EE30197F1F71E
:1001F00000C0000083E00E9475008FE79EE3019736
:10020000F1F700C0000082E00E94750088E20E94C1
:10021000750088E00E94750081E00E94750086E00C
:100220000E9475008CE00E9475009FEF29EF80E02E
:10023000915020408040E1F700C00000089598B33D
:10024000946098BB882324F498B3906898BB03C04B
:1002500098B39F7798BB86FF04C098B3906498BB0F
:1002600003C098B39F7B98BB85FF04C098B390628E
:1002700098BB03C098B39F7D98BB84FF04C098B31C
:10028000906198BB03C098B39F7E98BB98B3986069
:1002900098BBEFE9FFE03197F1F700C0000098B399
:1002A000977F98BBEFE9FFE03197F1F700C00000BE
:1002B00083FF04C098B3906898BB03C098B39F773E
:1002C00098BB82FF04C098B3906498BB03C098B3F6
:1002D0009F7B98BB81FF04C098B3906298BB03C01A
:1002E00098B39F7D98BB80FF04C088B3806188BBB2
:1002F00003C088B38F7E88BB88B3886088BB8FE9D2
:100300009FE00197F1F700C0000088B3877F88BBAA
:10031000EFE9FFE03197F1F700C0000008950F9377
:100320001F93CF938C01C0E003C00E941F01CF5FD9
:10033000F801EC0FF11D80818111F7CFCF911F9152
:100340000F9108951F93CF93DF93CDB7DEB72A9710
:100350000FB6F894DEBF0FBECDBFFE0131962AE086
:10036000DF011D922A95E9F7611571058105910557
:10037000D1F480E30E941F012BC02AE030E040E06E
:1003800050E00E943206E1E0F0E0EC0FFD1FE10FCB
:10039000F11D17FDFA95605D6083622F732F842F26
:1003A000952F1F5F01C010E0611571058105910552
:1003B00021F70CC0E1E0F0E0EC0FFD1FE10FF11DB3
:1003C00017FDFA9580810E941F011150112394F7A7
:1003D0002A960FB6F894DEBF0FBECDBFDF91CF9146
:1003E0001F910895809178008F5F80937800873007
:1003F00031F4809179000E9486021092780008956D
:1004000084B3816084BB84B3826084BB0E945D003E
:100410000E94E50082EF91E090937C0080937B0046
:100420000E94A7040E947F020E9483040E946D0024
:1004300044E6489F9001499F300D1124A9E8BFE48C
:100440000E945A060024880F991F001C880F991FCC
:10045000001C892F902D90937A00809379009C0145
:10046000235231092031310590F4682F660F660F51
:10047000C6EAC60FC53608F0C4E68C2F0E94960463
:1004800085B3816085BB85B3826085BB0AC080E08F
:100490000E94960485B38E7F85BB85B38D7F85BB17
:1004A000C0E081E00E94750080E690E00E948F012C
:1004B0006091790070917A0080E090E00E94A20142
:1004C00088E690E00E948F0180EC0E9475008BE628
:1004D00090E00E948F016C2F70E080E090E00E941D
:1004E000A20185E790E00E948F012FEF83EC99E055
:1004F000215080409040E1F700C0000097CF8AB3C0
:100500008E6F8ABB84B3806C84BB08954DEC849F4E
:10051000412D1124E42FE695E695E6954E2F440FE4
:10052000E42FEE0FEE0F4E0FE82FE41B95B390640F
:1005300095BB95B39F7795BB4E2F50E04A30510540
:1005400008F0E0C0FA01E65DFF4F0C9454069BB33F
:100550009F779BBB9BB390649BBB9BB390629BBB01
:100560009BB390619BBB9BB398609BBB9BB3946018
:100570009BBB9BB392609BBBC5C09BB39F779BBB50
:100580009BB390649BBB9BB390629BBB9BB39F7ED2
:100590009BBB9BB3977F9BBB9BB39B7F9BBB9BB33F
:1005A0009D7F9BBBAFC09BB390689BBB9BB39F7B66
:1005B0009BBB9BB390629BBB9BB390619BBB9BB36C
:1005C000977F9BBB9BB394609BBB9BB392609BBB91
:1005D00099C09BB390689BBB9BB39F7B9BBB9BB31A
:1005E0009F7D9BBB9BB390619BBB9BB398609BBB68
:1005F0009BB394609BBB9BB392609BBB83C09BB33C
:1006000090689BBB9BB390649BBB9BB39F7D9BBB44
:100610009BB39F7E9BBB9BB398609BBB9BB394603B
:100620009BBB9BB39D7F9BBB6DC09BB390689BBBEB
:100630009BB390649BBB9BB39F7D9BBB9BB3906123
:100640009BBB9BB398609BBB9BB39B7F9BBB9BB3AC
:1006500092609BBB57C09BB390689BBB9BB390645D
:100660009BBB9BB390629BBB9BB390619BBB9BB3BB
:1006700098609BBB9BB39B7F9BBB9BB392609BBBD8
:1006800041C09BB39F779BBB9BB39F7B9BBB9BB3A3
:100690009F7D9BBB9BB39F7E9BBB9BB398609BBB8B
:1006A0009BB394609BBB9BB392609BBB2BC09BB3E3
:1006B00090689BBB9BB390649BBB9BB390629BBBBE
:1006C0009BB390619BBB9BB398609BBB9BB39460B7
:1006D0009BBB9BB392609BBB15C09BB390689BBBBD
:1006E0009BB390649BBB9BB39F7D9BBB9BB3906173
:1006F0009BBB9BB398609BBB9BB394609BBB9BB322
:1007000092609BBBEFE3FCE93197F1F700C000007A
:10071000EDEC8E9F812D1124E82FE695E695E69568
:1007200085B38F7B85BB85B3806885BB8E2F90E0BA
:100730008A30910508F0E0C0FC01EC5CFF4F0C949E
:1007400054068BB38F778BBB8BB380648BBB8BB31F
:1007500080628BBB8BB380618BBB8BB388608BBBA0
:100760008BB384608BBB8BB382608BBBC5C08BB3F8
:100770008F778BBB8BB380648BBB8BB380628BBB5F
:100780008BB38F7E8BBB8BB3877F8BBB8BB38B7F06
:100790008BBB8BB38D7F8BBBAFC08BB380688BBBA8
:1007A0008BB38F7B8BBB8BB380628BBB8BB3806136
:1007B0008BBB8BB3877F8BBB8BB384608BBB8BB3C3
:1007C00082608BBB99C08BB380688BBB8BB38F7BF4
:1007D0008BBB8BB38F7D8BBB8BB380618BBB8BB3A0
:1007E00088608BBB8BB384608BBB8BB382608BBB0D
:1007F00083C08BB380688BBB8BB380648BBB8BB3A4
:100800008F7D8BBB8BB38F7E8BBB8BB388608BBB99
:100810008BB384608BBB8BB38D7F8BBB6DC08BB375
:1008200080688BBB8BB380648BBB8BB38F7D8BBBA2
:100830008BB380618BBB8BB388608BBB8BB38B7F9F
:100840008BBB8BB382608BBB57C08BB380688BBB79
:100850008BB380648BBB8BB380628BBB8BB38061AB
:100860008BBB8BB388608BBB8BB38B7F8BBB8BB30A
:1008700082608BBB41C08BB38F778BBB8BB38F7B7D
:100880008BBB8BB38F7D8BBB8BB38F7E8BBB8BB3C3
:1008900088608BBB8BB384608BBB8BB382608BBB5C
:1008A0002BC08BB380688BBB8BB380648BBB8BB34B
:1008B00080628BBB8BB380618BBB8BB388608BBB3F
:1008C0008BB384608BBB8BB382608BBB15C08BB347
:1008D00080688BBB8BB380648BBB8BB38F7D8BBBF2
:1008E0008BB380618BBB8BB388608BBB8BB3846015
:1008F0008BBB8BB382608BBB8FE39CE90197F1F7D5
:1009000000C00000089581B3806281BB8FB580680C
:100910008FBD8FB581608FBD8FB582608FBD8EB565
:1009200088608EBD8EB581608EBD0895682F70E0A1
:1009300080E090E00E94390524E13EEA43E251E480
:100940000E949D050E9408057BBD6ABD089585B57E
:10095000806885BD85B5816085BD85B5826085BDB2
:1009600085B5846085BD89B7806489BF8FB780688D
:100970008FBF08951F920F920FB60F9211242F93DD
:100980003F934F935F936F937F938F939F93AF9317
:10099000BF93EF93FF93E0917B00F0917C0009956A
:1009A000FF91EF91BF91AF919F918F917F916F9147
:1009B0005F914F913F912F910F900FBE0F901F901D
:1009C00018951F920F920FB60F9211242F933F93F9
:1009D0004F935F936F937F938F939F93AF93BF9347
:1009E000EF93FF93E0917D00F0917E000995FF91D8
:1009F000EF91BF91AF919F918F917F916F915F9197
:100A00004F913F912F910F900FBE0F901F9018950F
:100A10000E947C0588F09F5798F0B92F9927B7510D
:100A2000B0F0E1F0660F771F881F991F1AF0BA9592
:100A3000C9F714C0B13091F00E949605B1E0089555
:100A40000C949605672F782F8827B85F39F0B93F47
:100A5000CCF3869577956795B395D9F73EF4909545
:100A60008095709561957F4F8F4F9F4F0895E894C3
:100A700009C097FB3EF490958095709561957F4FE6
:100A80008F4F9F4F9923A9F0F92F96E9BB27939594
:100A9000F695879577956795B795F111F8CFFAF4A4
:100AA000BB0F11F460FF1BC06F5F7F4F8F4F9F4FD5
:100AB00016C0882311F096E911C0772321F09EE833
:100AC000872F762F05C0662371F096E8862F70E099
:100AD00060E02AF09A95660F771F881FDAF7880F73
:100AE0009695879597F9089557FD9058440F551F8F
:100AF00059F05F3F71F04795880F97FB991F61F0A0
:100B00009F3F79F087950895121613061406551F16
:100B1000F2CF4695F1DF08C0161617061806991F82
:100B2000F1CF86957105610508940895E894BB2777
:100B300066277727CB0197F908950E94B0050C949A
:100B400021060E94130638F00E941A0620F0952311
:100B500011F00C940A060C94100611240C949705BD
:100B60000E94740570F3959FC1F3950F50E0551FD7
:100B7000629FF001729FBB27F00DB11D639FAA27F2
:100B8000F00DB11DAA1F649F6627B00DA11D661F41
:100B9000829F2227B00DA11D621F739FB00DA11D62
:100BA000621F839FA00D611D221F749F3327A00D1C
:100BB000611D231F849F600D211D822F762F6A2FB8
:100BC00011249F5750409AF0F1F088234AF0EE0F1D
:100BD000FF1FBB1F661F771F881F91505040A9F74A
:100BE0009E3F510580F00C940A060C9497055F3FD8
:100BF000E4F3983ED4F3869577956795B795F79586
:100C0000E7959F5FC1F7FE2B880F911D96958795FD
:100C100097F9089597F99F6780E870E060E008957C
:100C20009FEF80EC089500240A9416161706180604
:100C30000906089500240A941216130614060506E0
:100C40000895092E0394000C11F4882352F0BB0F71
:100C500040F4BF2B11F460FF04C06F5F7F4F8F4FD4
:100C60009F4F0895A1E21A2EAA1BBB1BFD010DC0C8
:100C7000AA1FBB1FEE1FFF1FA217B307E407F5074C
:100C800020F0A21BB30BE40BF50B661F771F881F28
:100C9000991F1A9469F760957095809590959B01BE
:100CA000AC01BD01CF010895EE0FFF1F0590F49137
:100CB000E02D0994A29FB001B39FC001A39F700DC6
:100CC000811D1124911DB29F700D811D1124911D54
:060CD0000895F894FFCF27
:100CD60054656D702E3A20002063004D2E737065AA
:080CE60065643A2000250000BE
:00000001FF
